{"contracts/Ecommerce.sol":{"Ecommerce":{"abi":[{"inputs":[],"stateMutability":"nonpayable","type":"constructor"},{"inputs":[{"internalType":"string","name":"_name","type":"string"},{"internalType":"string","name":"_description","type":"string"},{"internalType":"uint256","name":"_price","type":"uint256"},{"internalType":"uint256","name":"_stock","type":"uint256"}],"name":"addProduct","outputs":[],"stateMutability":"nonpayable","type":"function"},{"inputs":[{"internalType":"uint256","name":"_id","type":"uint256"},{"internalType":"uint256","name":"_quantity","type":"uint256"}],"name":"purchaseProduct","outputs":[],"stateMutability":"payable","type":"function"},{"inputs":[{"internalType":"address","name":"","type":"address"},{"internalType":"uint256","name":"","type":"uint256"}],"name":"purchases","outputs":[{"internalType":"uint256","name":"","type":"uint256"}],"stateMutability":"view","type":"function"},{"inputs":[{"internalType":"uint256","name":"_id","type":"uint256"},{"internalType":"string","name":"_name","type":"string"},{"internalType":"uint256","name":"_price","type":"uint256"}],"name":"updateProduct","outputs":[],"stateMutability":"nonpayable","type":"function"},{"inputs":[{"internalType":"uint256","name":"_id","type":"uint256"}],"name":"viewProduct","outputs":[{"internalType":"string","name":"name","type":"string"},{"internalType":"string","name":"description","type":"string"},{"internalType":"uint256","name":"price","type":"uint256"},{"internalType":"uint256","name":"stock","type":"uint256"}],"stateMutability":"view","type":"function"}],"evm":{"bytecode":{"linkReferences":{},"object":"608060405234801561001057600080fd5b50336000806101000a81548173ffffffffffffffffffffffffffffffffffffffff021916908373ffffffffffffffffffffffffffffffffffffffff160217905550611154806100606000396000f3fe60806040526004361061004a5760003560e01c806301cecd141461004f57806352d3f8491461007857806353488deb146100b5578063a0440426146100de578063eafd4bbd146100fa575b600080fd5b34801561005b57600080fd5b5061007660048036038101906100719190610aac565b61013a565b005b34801561008457600080fd5b5061009f600480360381019061009a9190610a70565b610299565b6040516100ac9190610e26565b60405180910390f35b3480156100c157600080fd5b506100dc60048036038101906100d79190610b68565b6102be565b005b6100f860048036038101906100f39190610bcf565b6104a0565b005b34801561010657600080fd5b50610121600480360381019061011c9190610b3f565b610767565b6040516101319493929190610d53565b60405180910390f35b60008054906101000a900473ffffffffffffffffffffffffffffffffffffffff1673ffffffffffffffffffffffffffffffffffffffff163373ffffffffffffffffffffffffffffffffffffffff16146101c8576040517f08c379a00000000000000000000000000000000000000000000000000000000081526004016101bf90610de6565b60405180910390fd5b60006040518060a001604052808681526020018581526020018481526020018381526020016001151581525090506001819080600181540180825580915050600190039060005260206000209060050201600090919091909150600082015181600001908051906020019061023e92919061093b565b50602082015181600101908051906020019061025b92919061093b565b50604082015181600201556060820151816003015560808201518160040160006101000a81548160ff02191690831515021790555050505050505050565b6002602052816000526040600020602052806000526040600020600091509150505481565b60008054906101000a900473ffffffffffffffffffffffffffffffffffffffff1673ffffffffffffffffffffffffffffffffffffffff163373ffffffffffffffffffffffffffffffffffffffff161461034c576040517f08c379a000000000000000000000000000000000000000000000000000000000815260040161034390610de6565b60405180910390fd5b600115156001848154811061038a577f4e487b7100000000000000000000000000000000000000000000000000000000600052603260045260246000fd5b906000526020600020906005020160040160009054906101000a900460ff161515146103eb576040517f08c379a00000000000000000000000000000000000000000000000000000000081526004016103e290610da6565b60405180910390fd5b8160018481548110610426577f4e487b7100000000000000000000000000000000000000000000000000000000600052603260045260246000fd5b9060005260206000209060050201600001908051906020019061044a92919061093b565b508060018481548110610486577f4e487b7100000000000000000000000000000000000000000000000000000000600052603260045260246000fd5b906000526020600020906005020160020181905550505050565b6000600183815481106104dc577f4e487b7100000000000000000000000000000000000000000000000000000000600052603260045260246000fd5b90600052602060002090600502016040518060a001604052908160008201805461050590611020565b80601f016020809104026020016040519081016040528092919081815260200182805461053190611020565b801561057e5780601f106105535761010080835404028352916020019161057e565b820191906000526020600020905b81548152906001019060200180831161056157829003601f168201915b5050505050815260200160018201805461059790611020565b80601f01602080910402602001604051908101604052809291908181526020018280546105c390611020565b80156106105780601f106105e557610100808354040283529160200191610610565b820191906000526020600020905b8154815290600101906020018083116105f357829003601f168201915b5050505050815260200160028201548152602001600382015481526020016004820160009054906101000a900460ff161515151581525050905081816040015161065a9190610f14565b341461069b576040517f08c379a000000000000000000000000000000000000000000000000000000000815260040161069290610dc6565b60405180910390fd5b81816060015110156106e2576040517f08c379a00000000000000000000000000000000000000000000000000000000081526004016106d990610e06565b60405180910390fd5b81600260003373ffffffffffffffffffffffffffffffffffffffff1673ffffffffffffffffffffffffffffffffffffffff168152602001908152602001600020600085815260200190815260200160002060008282546107429190610ebe565b92505081905550818160600181815161075b9190610f6e565b91508181525050505050565b6060806000806000600186815481106107a9577f4e487b7100000000000000000000000000000000000000000000000000000000600052603260045260246000fd5b90600052602060002090600502016040518060a00160405290816000820180546107d290611020565b80601f01602080910402602001604051908101604052809291908181526020018280546107fe90611020565b801561084b5780601f106108205761010080835404028352916020019161084b565b820191906000526020600020905b81548152906001019060200180831161082e57829003601f168201915b5050505050815260200160018201805461086490611020565b80601f016020809104026020016040519081016040528092919081815260200182805461089090611020565b80156108dd5780601f106108b2576101008083540402835291602001916108dd565b820191906000526020600020905b8154815290600101906020018083116108c057829003601f168201915b5050505050815260200160028201548152602001600382015481526020016004820160009054906101000a900460ff161515151581525050905080600001518160200151826040015183606001519450945094509450509193509193565b82805461094790611020565b90600052602060002090601f01602090048101928261096957600085556109b0565b82601f1061098257805160ff19168380011785556109b0565b828001600101855582156109b0579182015b828111156109af578251825591602001919060010190610994565b5b5090506109bd91906109c1565b5090565b5b808211156109da5760008160009055506001016109c2565b5090565b60006109f16109ec84610e72565b610e41565b905082815260208101848484011115610a0957600080fd5b610a14848285610fde565b509392505050565b600081359050610a2b816110f0565b92915050565b600082601f830112610a4257600080fd5b8135610a528482602086016109de565b91505092915050565b600081359050610a6a81611107565b92915050565b60008060408385031215610a8357600080fd5b6000610a9185828601610a1c565b9250506020610aa285828601610a5b565b9150509250929050565b60008060008060808587031215610ac257600080fd5b600085013567ffffffffffffffff811115610adc57600080fd5b610ae887828801610a31565b945050602085013567ffffffffffffffff811115610b0557600080fd5b610b1187828801610a31565b9350506040610b2287828801610a5b565b9250506060610b3387828801610a5b565b91505092959194509250565b600060208284031215610b5157600080fd5b6000610b5f84828501610a5b565b91505092915050565b600080600060608486031215610b7d57600080fd5b6000610b8b86828701610a5b565b935050602084013567ffffffffffffffff811115610ba857600080fd5b610bb486828701610a31565b9250506040610bc586828701610a5b565b9150509250925092565b60008060408385031215610be257600080fd5b6000610bf085828601610a5b565b9250506020610c0185828601610a5b565b9150509250929050565b6000610c1682610ea2565b610c208185610ead565b9350610c30818560208601610fed565b610c39816110df565b840191505092915050565b6000610c51600d83610ead565b91507f4e6f7420417661696c61626c65000000000000000000000000000000000000006000830152602082019050919050565b6000610c91601083610ead565b91507f4e6f7420656e6f7567682066756e6473000000000000000000000000000000006000830152602082019050919050565b6000610cd1600d83610ead565b91507f4e6f207065726d697373696f6e000000000000000000000000000000000000006000830152602082019050919050565b6000610d11600c83610ead565b91507f4f7574206f66206f7264657200000000000000000000000000000000000000006000830152602082019050919050565b610d4d81610fd4565b82525050565b60006080820190508181036000830152610d6d8187610c0b565b90508181036020830152610d818186610c0b565b9050610d906040830185610d44565b610d9d6060830184610d44565b95945050505050565b60006020820190508181036000830152610dbf81610c44565b9050919050565b60006020820190508181036000830152610ddf81610c84565b9050919050565b60006020820190508181036000830152610dff81610cc4565b9050919050565b60006020820190508181036000830152610e1f81610d04565b9050919050565b6000602082019050610e3b6000830184610d44565b92915050565b6000604051905081810181811067ffffffffffffffff82111715610e6857610e676110b0565b5b8060405250919050565b600067ffffffffffffffff821115610e8d57610e8c6110b0565b5b601f19601f8301169050602081019050919050565b600081519050919050565b600082825260208201905092915050565b6000610ec982610fd4565b9150610ed483610fd4565b9250827fffffffffffffffffffffffffffffffffffffffffffffffffffffffffffffffff03821115610f0957610f08611052565b5b828201905092915050565b6000610f1f82610fd4565b9150610f2a83610fd4565b9250817fffffffffffffffffffffffffffffffffffffffffffffffffffffffffffffffff0483118215151615610f6357610f62611052565b5b828202905092915050565b6000610f7982610fd4565b9150610f8483610fd4565b925082821015610f9757610f96611052565b5b828203905092915050565b6000610fad82610fb4565b9050919050565b600073ffffffffffffffffffffffffffffffffffffffff82169050919050565b6000819050919050565b82818337600083830152505050565b60005b8381101561100b578082015181840152602081019050610ff0565b8381111561101a576000848401525b50505050565b6000600282049050600182168061103857607f821691505b6020821081141561104c5761104b611081565b5b50919050565b7f4e487b7100000000000000000000000000000000000000000000000000000000600052601160045260246000fd5b7f4e487b7100000000000000000000000000000000000000000000000000000000600052602260045260246000fd5b7f4e487b7100000000000000000000000000000000000000000000000000000000600052604160045260246000fd5b6000601f19601f8301169050919050565b6110f981610fa2565b811461110457600080fd5b50565b61111081610fd4565b811461111b57600080fd5b5056fea2646970667358221220f61b5116c9157fab2fb648c48d154ff55706aa735f7954ec276a50eebb64beaf64736f6c63430008000033","opcodes":"PUSH1 0x80 PUSH1 0x40 MSTORE CALLVALUE DUP1 ISZERO PUSH2 0x10 JUMPI PUSH1 0x0 DUP1 REVERT JUMPDEST POP CALLER PUSH1 0x0 DUP1 PUSH2 0x100 EXP DUP2 SLOAD DUP2 PUSH20 0xFFFFFFFFFFFFFFFFFFFFFFFFFFFFFFFFFFFFFFFF MUL NOT AND SWAP1 DUP4 PUSH20 0xFFFFFFFFFFFFFFFFFFFFFFFFFFFFFFFFFFFFFFFF AND MUL OR SWAP1 SSTORE POP PUSH2 0x1154 DUP1 PUSH2 0x60 PUSH1 0x0 CODECOPY PUSH1 0x0 RETURN INVALID PUSH1 0x80 PUSH1 0x40 MSTORE PUSH1 0x4 CALLDATASIZE LT PUSH2 0x4A JUMPI PUSH1 0x0 CALLDATALOAD PUSH1 0xE0 SHR DUP1 PUSH4 0x1CECD14 EQ PUSH2 0x4F JUMPI DUP1 PUSH4 0x52D3F849 EQ PUSH2 0x78 JUMPI DUP1 PUSH4 0x53488DEB EQ PUSH2 0xB5 JUMPI DUP1 PUSH4 0xA0440426 EQ PUSH2 0xDE JUMPI DUP1 PUSH4 0xEAFD4BBD EQ PUSH2 0xFA JUMPI JUMPDEST PUSH1 0x0 DUP1 REVERT JUMPDEST CALLVALUE DUP1 ISZERO PUSH2 0x5B JUMPI PUSH1 0x0 DUP1 REVERT JUMPDEST POP PUSH2 0x76 PUSH1 0x4 DUP1 CALLDATASIZE SUB DUP2 ADD SWAP1 PUSH2 0x71 SWAP2 SWAP1 PUSH2 0xAAC JUMP JUMPDEST PUSH2 0x13A JUMP JUMPDEST STOP JUMPDEST CALLVALUE DUP1 ISZERO PUSH2 0x84 JUMPI PUSH1 0x0 DUP1 REVERT JUMPDEST POP PUSH2 0x9F PUSH1 0x4 DUP1 CALLDATASIZE SUB DUP2 ADD SWAP1 PUSH2 0x9A SWAP2 SWAP1 PUSH2 0xA70 JUMP JUMPDEST PUSH2 0x299 JUMP JUMPDEST PUSH1 0x40 MLOAD PUSH2 0xAC SWAP2 SWAP1 PUSH2 0xE26 JUMP JUMPDEST PUSH1 0x40 MLOAD DUP1 SWAP2 SUB SWAP1 RETURN JUMPDEST CALLVALUE DUP1 ISZERO PUSH2 0xC1 JUMPI PUSH1 0x0 DUP1 REVERT JUMPDEST POP PUSH2 0xDC PUSH1 0x4 DUP1 CALLDATASIZE SUB DUP2 ADD SWAP1 PUSH2 0xD7 SWAP2 SWAP1 PUSH2 0xB68 JUMP JUMPDEST PUSH2 0x2BE JUMP JUMPDEST STOP JUMPDEST PUSH2 0xF8 PUSH1 0x4 DUP1 CALLDATASIZE SUB DUP2 ADD SWAP1 PUSH2 0xF3 SWAP2 SWAP1 PUSH2 0xBCF JUMP JUMPDEST PUSH2 0x4A0 JUMP JUMPDEST STOP JUMPDEST CALLVALUE DUP1 ISZERO PUSH2 0x106 JUMPI PUSH1 0x0 DUP1 REVERT JUMPDEST POP PUSH2 0x121 PUSH1 0x4 DUP1 CALLDATASIZE SUB DUP2 ADD SWAP1 PUSH2 0x11C SWAP2 SWAP1 PUSH2 0xB3F JUMP JUMPDEST PUSH2 0x767 JUMP JUMPDEST PUSH1 0x40 MLOAD PUSH2 0x131 SWAP5 SWAP4 SWAP3 SWAP2 SWAP1 PUSH2 0xD53 JUMP JUMPDEST PUSH1 0x40 MLOAD DUP1 SWAP2 SUB SWAP1 RETURN JUMPDEST PUSH1 0x0 DUP1 SLOAD SWAP1 PUSH2 0x100 EXP SWAP1 DIV PUSH20 0xFFFFFFFFFFFFFFFFFFFFFFFFFFFFFFFFFFFFFFFF AND PUSH20 0xFFFFFFFFFFFFFFFFFFFFFFFFFFFFFFFFFFFFFFFF AND CALLER PUSH20 0xFFFFFFFFFFFFFFFFFFFFFFFFFFFFFFFFFFFFFFFF AND EQ PUSH2 0x1C8 JUMPI PUSH1 0x40 MLOAD PUSH32 0x8C379A000000000000000000000000000000000000000000000000000000000 DUP2 MSTORE PUSH1 0x4 ADD PUSH2 0x1BF SWAP1 PUSH2 0xDE6 JUMP JUMPDEST PUSH1 0x40 MLOAD DUP1 SWAP2 SUB SWAP1 REVERT JUMPDEST PUSH1 0x0 PUSH1 0x40 MLOAD DUP1 PUSH1 0xA0 ADD PUSH1 0x40 MSTORE DUP1 DUP7 DUP2 MSTORE PUSH1 0x20 ADD DUP6 DUP2 MSTORE PUSH1 0x20 ADD DUP5 DUP2 MSTORE PUSH1 0x20 ADD DUP4 DUP2 MSTORE PUSH1 0x20 ADD PUSH1 0x1 ISZERO ISZERO DUP2 MSTORE POP SWAP1 POP PUSH1 0x1 DUP2 SWAP1 DUP1 PUSH1 0x1 DUP2 SLOAD ADD DUP1 DUP3 SSTORE DUP1 SWAP2 POP POP PUSH1 0x1 SWAP1 SUB SWAP1 PUSH1 0x0 MSTORE PUSH1 0x20 PUSH1 0x0 KECCAK256 SWAP1 PUSH1 0x5 MUL ADD PUSH1 0x0 SWAP1 SWAP2 SWAP1 SWAP2 SWAP1 SWAP2 POP PUSH1 0x0 DUP3 ADD MLOAD DUP2 PUSH1 0x0 ADD SWAP1 DUP1 MLOAD SWAP1 PUSH1 0x20 ADD SWAP1 PUSH2 0x23E SWAP3 SWAP2 SWAP1 PUSH2 0x93B JUMP JUMPDEST POP PUSH1 0x20 DUP3 ADD MLOAD DUP2 PUSH1 0x1 ADD SWAP1 DUP1 MLOAD SWAP1 PUSH1 0x20 ADD SWAP1 PUSH2 0x25B SWAP3 SWAP2 SWAP1 PUSH2 0x93B JUMP JUMPDEST POP PUSH1 0x40 DUP3 ADD MLOAD DUP2 PUSH1 0x2 ADD SSTORE PUSH1 0x60 DUP3 ADD MLOAD DUP2 PUSH1 0x3 ADD SSTORE PUSH1 0x80 DUP3 ADD MLOAD DUP2 PUSH1 0x4 ADD PUSH1 0x0 PUSH2 0x100 EXP DUP2 SLOAD DUP2 PUSH1 0xFF MUL NOT AND SWAP1 DUP4 ISZERO ISZERO MUL OR SWAP1 SSTORE POP POP POP POP POP POP POP POP JUMP JUMPDEST PUSH1 0x2 PUSH1 0x20 MSTORE DUP2 PUSH1 0x0 MSTORE PUSH1 0x40 PUSH1 0x0 KECCAK256 PUSH1 0x20 MSTORE DUP1 PUSH1 0x0 MSTORE PUSH1 0x40 PUSH1 0x0 KECCAK256 PUSH1 0x0 SWAP2 POP SWAP2 POP POP SLOAD DUP2 JUMP JUMPDEST PUSH1 0x0 DUP1 SLOAD SWAP1 PUSH2 0x100 EXP SWAP1 DIV PUSH20 0xFFFFFFFFFFFFFFFFFFFFFFFFFFFFFFFFFFFFFFFF AND PUSH20 0xFFFFFFFFFFFFFFFFFFFFFFFFFFFFFFFFFFFFFFFF AND CALLER PUSH20 0xFFFFFFFFFFFFFFFFFFFFFFFFFFFFFFFFFFFFFFFF AND EQ PUSH2 0x34C JUMPI PUSH1 0x40 MLOAD PUSH32 0x8C379A000000000000000000000000000000000000000000000000000000000 DUP2 MSTORE PUSH1 0x4 ADD PUSH2 0x343 SWAP1 PUSH2 0xDE6 JUMP JUMPDEST PUSH1 0x40 MLOAD DUP1 SWAP2 SUB SWAP1 REVERT JUMPDEST PUSH1 0x1 ISZERO ISZERO PUSH1 0x1 DUP5 DUP2 SLOAD DUP2 LT PUSH2 0x38A JUMPI PUSH32 0x4E487B7100000000000000000000000000000000000000000000000000000000 PUSH1 0x0 MSTORE PUSH1 0x32 PUSH1 0x4 MSTORE PUSH1 0x24 PUSH1 0x0 REVERT JUMPDEST SWAP1 PUSH1 0x0 MSTORE PUSH1 0x20 PUSH1 0x0 KECCAK256 SWAP1 PUSH1 0x5 MUL ADD PUSH1 0x4 ADD PUSH1 0x0 SWAP1 SLOAD SWAP1 PUSH2 0x100 EXP SWAP1 DIV PUSH1 0xFF AND ISZERO ISZERO EQ PUSH2 0x3EB JUMPI PUSH1 0x40 MLOAD PUSH32 0x8C379A000000000000000000000000000000000000000000000000000000000 DUP2 MSTORE PUSH1 0x4 ADD PUSH2 0x3E2 SWAP1 PUSH2 0xDA6 JUMP JUMPDEST PUSH1 0x40 MLOAD DUP1 SWAP2 SUB SWAP1 REVERT JUMPDEST DUP2 PUSH1 0x1 DUP5 DUP2 SLOAD DUP2 LT PUSH2 0x426 JUMPI PUSH32 0x4E487B7100000000000000000000000000000000000000000000000000000000 PUSH1 0x0 MSTORE PUSH1 0x32 PUSH1 0x4 MSTORE PUSH1 0x24 PUSH1 0x0 REVERT JUMPDEST SWAP1 PUSH1 0x0 MSTORE PUSH1 0x20 PUSH1 0x0 KECCAK256 SWAP1 PUSH1 0x5 MUL ADD PUSH1 0x0 ADD SWAP1 DUP1 MLOAD SWAP1 PUSH1 0x20 ADD SWAP1 PUSH2 0x44A SWAP3 SWAP2 SWAP1 PUSH2 0x93B JUMP JUMPDEST POP DUP1 PUSH1 0x1 DUP5 DUP2 SLOAD DUP2 LT PUSH2 0x486 JUMPI PUSH32 0x4E487B7100000000000000000000000000000000000000000000000000000000 PUSH1 0x0 MSTORE PUSH1 0x32 PUSH1 0x4 MSTORE PUSH1 0x24 PUSH1 0x0 REVERT JUMPDEST SWAP1 PUSH1 0x0 MSTORE PUSH1 0x20 PUSH1 0x0 KECCAK256 SWAP1 PUSH1 0x5 MUL ADD PUSH1 0x2 ADD DUP2 SWAP1 SSTORE POP POP POP POP JUMP JUMPDEST PUSH1 0x0 PUSH1 0x1 DUP4 DUP2 SLOAD DUP2 LT PUSH2 0x4DC JUMPI PUSH32 0x4E487B7100000000000000000000000000000000000000000000000000000000 PUSH1 0x0 MSTORE PUSH1 0x32 PUSH1 0x4 MSTORE PUSH1 0x24 PUSH1 0x0 REVERT JUMPDEST SWAP1 PUSH1 0x0 MSTORE PUSH1 0x20 PUSH1 0x0 KECCAK256 SWAP1 PUSH1 0x5 MUL ADD PUSH1 0x40 MLOAD DUP1 PUSH1 0xA0 ADD PUSH1 0x40 MSTORE SWAP1 DUP2 PUSH1 0x0 DUP3 ADD DUP1 SLOAD PUSH2 0x505 SWAP1 PUSH2 0x1020 JUMP JUMPDEST DUP1 PUSH1 0x1F ADD PUSH1 0x20 DUP1 SWAP2 DIV MUL PUSH1 0x20 ADD PUSH1 0x40 MLOAD SWAP1 DUP2 ADD PUSH1 0x40 MSTORE DUP1 SWAP3 SWAP2 SWAP1 DUP2 DUP2 MSTORE PUSH1 0x20 ADD DUP3 DUP1 SLOAD PUSH2 0x531 SWAP1 PUSH2 0x1020 JUMP JUMPDEST DUP1 ISZERO PUSH2 0x57E JUMPI DUP1 PUSH1 0x1F LT PUSH2 0x553 JUMPI PUSH2 0x100 DUP1 DUP4 SLOAD DIV MUL DUP4 MSTORE SWAP2 PUSH1 0x20 ADD SWAP2 PUSH2 0x57E JUMP JUMPDEST DUP3 ADD SWAP2 SWAP1 PUSH1 0x0 MSTORE PUSH1 0x20 PUSH1 0x0 KECCAK256 SWAP1 JUMPDEST DUP2 SLOAD DUP2 MSTORE SWAP1 PUSH1 0x1 ADD SWAP1 PUSH1 0x20 ADD DUP1 DUP4 GT PUSH2 0x561 JUMPI DUP3 SWAP1 SUB PUSH1 0x1F AND DUP3 ADD SWAP2 JUMPDEST POP POP POP POP POP DUP2 MSTORE PUSH1 0x20 ADD PUSH1 0x1 DUP3 ADD DUP1 SLOAD PUSH2 0x597 SWAP1 PUSH2 0x1020 JUMP JUMPDEST DUP1 PUSH1 0x1F ADD PUSH1 0x20 DUP1 SWAP2 DIV MUL PUSH1 0x20 ADD PUSH1 0x40 MLOAD SWAP1 DUP2 ADD PUSH1 0x40 MSTORE DUP1 SWAP3 SWAP2 SWAP1 DUP2 DUP2 MSTORE PUSH1 0x20 ADD DUP3 DUP1 SLOAD PUSH2 0x5C3 SWAP1 PUSH2 0x1020 JUMP JUMPDEST DUP1 ISZERO PUSH2 0x610 JUMPI DUP1 PUSH1 0x1F LT PUSH2 0x5E5 JUMPI PUSH2 0x100 DUP1 DUP4 SLOAD DIV MUL DUP4 MSTORE SWAP2 PUSH1 0x20 ADD SWAP2 PUSH2 0x610 JUMP JUMPDEST DUP3 ADD SWAP2 SWAP1 PUSH1 0x0 MSTORE PUSH1 0x20 PUSH1 0x0 KECCAK256 SWAP1 JUMPDEST DUP2 SLOAD DUP2 MSTORE SWAP1 PUSH1 0x1 ADD SWAP1 PUSH1 0x20 ADD DUP1 DUP4 GT PUSH2 0x5F3 JUMPI DUP3 SWAP1 SUB PUSH1 0x1F AND DUP3 ADD SWAP2 JUMPDEST POP POP POP POP POP DUP2 MSTORE PUSH1 0x20 ADD PUSH1 0x2 DUP3 ADD SLOAD DUP2 MSTORE PUSH1 0x20 ADD PUSH1 0x3 DUP3 ADD SLOAD DUP2 MSTORE PUSH1 0x20 ADD PUSH1 0x4 DUP3 ADD PUSH1 0x0 SWAP1 SLOAD SWAP1 PUSH2 0x100 EXP SWAP1 DIV PUSH1 0xFF AND ISZERO ISZERO ISZERO ISZERO DUP2 MSTORE POP POP SWAP1 POP DUP2 DUP2 PUSH1 0x40 ADD MLOAD PUSH2 0x65A SWAP2 SWAP1 PUSH2 0xF14 JUMP JUMPDEST CALLVALUE EQ PUSH2 0x69B JUMPI PUSH1 0x40 MLOAD PUSH32 0x8C379A000000000000000000000000000000000000000000000000000000000 DUP2 MSTORE PUSH1 0x4 ADD PUSH2 0x692 SWAP1 PUSH2 0xDC6 JUMP JUMPDEST PUSH1 0x40 MLOAD DUP1 SWAP2 SUB SWAP1 REVERT JUMPDEST DUP2 DUP2 PUSH1 0x60 ADD MLOAD LT ISZERO PUSH2 0x6E2 JUMPI PUSH1 0x40 MLOAD PUSH32 0x8C379A000000000000000000000000000000000000000000000000000000000 DUP2 MSTORE PUSH1 0x4 ADD PUSH2 0x6D9 SWAP1 PUSH2 0xE06 JUMP JUMPDEST PUSH1 0x40 MLOAD DUP1 SWAP2 SUB SWAP1 REVERT JUMPDEST DUP2 PUSH1 0x2 PUSH1 0x0 CALLER PUSH20 0xFFFFFFFFFFFFFFFFFFFFFFFFFFFFFFFFFFFFFFFF AND PUSH20 0xFFFFFFFFFFFFFFFFFFFFFFFFFFFFFFFFFFFFFFFF AND DUP2 MSTORE PUSH1 0x20 ADD SWAP1 DUP2 MSTORE PUSH1 0x20 ADD PUSH1 0x0 KECCAK256 PUSH1 0x0 DUP6 DUP2 MSTORE PUSH1 0x20 ADD SWAP1 DUP2 MSTORE PUSH1 0x20 ADD PUSH1 0x0 KECCAK256 PUSH1 0x0 DUP3 DUP3 SLOAD PUSH2 0x742 SWAP2 SWAP1 PUSH2 0xEBE JUMP JUMPDEST SWAP3 POP POP DUP2 SWAP1 SSTORE POP DUP2 DUP2 PUSH1 0x60 ADD DUP2 DUP2 MLOAD PUSH2 0x75B SWAP2 SWAP1 PUSH2 0xF6E JUMP JUMPDEST SWAP2 POP DUP2 DUP2 MSTORE POP POP POP POP POP JUMP JUMPDEST PUSH1 0x60 DUP1 PUSH1 0x0 DUP1 PUSH1 0x0 PUSH1 0x1 DUP7 DUP2 SLOAD DUP2 LT PUSH2 0x7A9 JUMPI PUSH32 0x4E487B7100000000000000000000000000000000000000000000000000000000 PUSH1 0x0 MSTORE PUSH1 0x32 PUSH1 0x4 MSTORE PUSH1 0x24 PUSH1 0x0 REVERT JUMPDEST SWAP1 PUSH1 0x0 MSTORE PUSH1 0x20 PUSH1 0x0 KECCAK256 SWAP1 PUSH1 0x5 MUL ADD PUSH1 0x40 MLOAD DUP1 PUSH1 0xA0 ADD PUSH1 0x40 MSTORE SWAP1 DUP2 PUSH1 0x0 DUP3 ADD DUP1 SLOAD PUSH2 0x7D2 SWAP1 PUSH2 0x1020 JUMP JUMPDEST DUP1 PUSH1 0x1F ADD PUSH1 0x20 DUP1 SWAP2 DIV MUL PUSH1 0x20 ADD PUSH1 0x40 MLOAD SWAP1 DUP2 ADD PUSH1 0x40 MSTORE DUP1 SWAP3 SWAP2 SWAP1 DUP2 DUP2 MSTORE PUSH1 0x20 ADD DUP3 DUP1 SLOAD PUSH2 0x7FE SWAP1 PUSH2 0x1020 JUMP JUMPDEST DUP1 ISZERO PUSH2 0x84B JUMPI DUP1 PUSH1 0x1F LT PUSH2 0x820 JUMPI PUSH2 0x100 DUP1 DUP4 SLOAD DIV MUL DUP4 MSTORE SWAP2 PUSH1 0x20 ADD SWAP2 PUSH2 0x84B JUMP JUMPDEST DUP3 ADD SWAP2 SWAP1 PUSH1 0x0 MSTORE PUSH1 0x20 PUSH1 0x0 KECCAK256 SWAP1 JUMPDEST DUP2 SLOAD DUP2 MSTORE SWAP1 PUSH1 0x1 ADD SWAP1 PUSH1 0x20 ADD DUP1 DUP4 GT PUSH2 0x82E JUMPI DUP3 SWAP1 SUB PUSH1 0x1F AND DUP3 ADD SWAP2 JUMPDEST POP POP POP POP POP DUP2 MSTORE PUSH1 0x20 ADD PUSH1 0x1 DUP3 ADD DUP1 SLOAD PUSH2 0x864 SWAP1 PUSH2 0x1020 JUMP JUMPDEST DUP1 PUSH1 0x1F ADD PUSH1 0x20 DUP1 SWAP2 DIV MUL PUSH1 0x20 ADD PUSH1 0x40 MLOAD SWAP1 DUP2 ADD PUSH1 0x40 MSTORE DUP1 SWAP3 SWAP2 SWAP1 DUP2 DUP2 MSTORE PUSH1 0x20 ADD DUP3 DUP1 SLOAD PUSH2 0x890 SWAP1 PUSH2 0x1020 JUMP JUMPDEST DUP1 ISZERO PUSH2 0x8DD JUMPI DUP1 PUSH1 0x1F LT PUSH2 0x8B2 JUMPI PUSH2 0x100 DUP1 DUP4 SLOAD DIV MUL DUP4 MSTORE SWAP2 PUSH1 0x20 ADD SWAP2 PUSH2 0x8DD JUMP JUMPDEST DUP3 ADD SWAP2 SWAP1 PUSH1 0x0 MSTORE PUSH1 0x20 PUSH1 0x0 KECCAK256 SWAP1 JUMPDEST DUP2 SLOAD DUP2 MSTORE SWAP1 PUSH1 0x1 ADD SWAP1 PUSH1 0x20 ADD DUP1 DUP4 GT PUSH2 0x8C0 JUMPI DUP3 SWAP1 SUB PUSH1 0x1F AND DUP3 ADD SWAP2 JUMPDEST POP POP POP POP POP DUP2 MSTORE PUSH1 0x20 ADD PUSH1 0x2 DUP3 ADD SLOAD DUP2 MSTORE PUSH1 0x20 ADD PUSH1 0x3 DUP3 ADD SLOAD DUP2 MSTORE PUSH1 0x20 ADD PUSH1 0x4 DUP3 ADD PUSH1 0x0 SWAP1 SLOAD SWAP1 PUSH2 0x100 EXP SWAP1 DIV PUSH1 0xFF AND ISZERO ISZERO ISZERO ISZERO DUP2 MSTORE POP POP SWAP1 POP DUP1 PUSH1 0x0 ADD MLOAD DUP2 PUSH1 0x20 ADD MLOAD DUP3 PUSH1 0x40 ADD MLOAD DUP4 PUSH1 0x60 ADD MLOAD SWAP5 POP SWAP5 POP SWAP5 POP SWAP5 POP POP SWAP2 SWAP4 POP SWAP2 SWAP4 JUMP JUMPDEST DUP3 DUP1 SLOAD PUSH2 0x947 SWAP1 PUSH2 0x1020 JUMP JUMPDEST SWAP1 PUSH1 0x0 MSTORE PUSH1 0x20 PUSH1 0x0 KECCAK256 SWAP1 PUSH1 0x1F ADD PUSH1 0x20 SWAP1 DIV DUP2 ADD SWAP3 DUP3 PUSH2 0x969 JUMPI PUSH1 0x0 DUP6 SSTORE PUSH2 0x9B0 JUMP JUMPDEST DUP3 PUSH1 0x1F LT PUSH2 0x982 JUMPI DUP1 MLOAD PUSH1 0xFF NOT AND DUP4 DUP1 ADD OR DUP6 SSTORE PUSH2 0x9B0 JUMP JUMPDEST DUP3 DUP1 ADD PUSH1 0x1 ADD DUP6 SSTORE DUP3 ISZERO PUSH2 0x9B0 JUMPI SWAP2 DUP3 ADD JUMPDEST DUP3 DUP2 GT ISZERO PUSH2 0x9AF JUMPI DUP3 MLOAD DUP3 SSTORE SWAP2 PUSH1 0x20 ADD SWAP2 SWAP1 PUSH1 0x1 ADD SWAP1 PUSH2 0x994 JUMP JUMPDEST JUMPDEST POP SWAP1 POP PUSH2 0x9BD SWAP2 SWAP1 PUSH2 0x9C1 JUMP JUMPDEST POP SWAP1 JUMP JUMPDEST JUMPDEST DUP1 DUP3 GT ISZERO PUSH2 0x9DA JUMPI PUSH1 0x0 DUP2 PUSH1 0x0 SWAP1 SSTORE POP PUSH1 0x1 ADD PUSH2 0x9C2 JUMP JUMPDEST POP SWAP1 JUMP JUMPDEST PUSH1 0x0 PUSH2 0x9F1 PUSH2 0x9EC DUP5 PUSH2 0xE72 JUMP JUMPDEST PUSH2 0xE41 JUMP JUMPDEST SWAP1 POP DUP3 DUP2 MSTORE PUSH1 0x20 DUP2 ADD DUP5 DUP5 DUP5 ADD GT ISZERO PUSH2 0xA09 JUMPI PUSH1 0x0 DUP1 REVERT JUMPDEST PUSH2 0xA14 DUP5 DUP3 DUP6 PUSH2 0xFDE JUMP JUMPDEST POP SWAP4 SWAP3 POP POP POP JUMP JUMPDEST PUSH1 0x0 DUP2 CALLDATALOAD SWAP1 POP PUSH2 0xA2B DUP2 PUSH2 0x10F0 JUMP JUMPDEST SWAP3 SWAP2 POP POP JUMP JUMPDEST PUSH1 0x0 DUP3 PUSH1 0x1F DUP4 ADD SLT PUSH2 0xA42 JUMPI PUSH1 0x0 DUP1 REVERT JUMPDEST DUP2 CALLDATALOAD PUSH2 0xA52 DUP5 DUP3 PUSH1 0x20 DUP7 ADD PUSH2 0x9DE JUMP JUMPDEST SWAP2 POP POP SWAP3 SWAP2 POP POP JUMP JUMPDEST PUSH1 0x0 DUP2 CALLDATALOAD SWAP1 POP PUSH2 0xA6A DUP2 PUSH2 0x1107 JUMP JUMPDEST SWAP3 SWAP2 POP POP JUMP JUMPDEST PUSH1 0x0 DUP1 PUSH1 0x40 DUP4 DUP6 SUB SLT ISZERO PUSH2 0xA83 JUMPI PUSH1 0x0 DUP1 REVERT JUMPDEST PUSH1 0x0 PUSH2 0xA91 DUP6 DUP3 DUP7 ADD PUSH2 0xA1C JUMP JUMPDEST SWAP3 POP POP PUSH1 0x20 PUSH2 0xAA2 DUP6 DUP3 DUP7 ADD PUSH2 0xA5B JUMP JUMPDEST SWAP2 POP POP SWAP3 POP SWAP3 SWAP1 POP JUMP JUMPDEST PUSH1 0x0 DUP1 PUSH1 0x0 DUP1 PUSH1 0x80 DUP6 DUP8 SUB SLT ISZERO PUSH2 0xAC2 JUMPI PUSH1 0x0 DUP1 REVERT JUMPDEST PUSH1 0x0 DUP6 ADD CALLDATALOAD PUSH8 0xFFFFFFFFFFFFFFFF DUP2 GT ISZERO PUSH2 0xADC JUMPI PUSH1 0x0 DUP1 REVERT JUMPDEST PUSH2 0xAE8 DUP8 DUP3 DUP9 ADD PUSH2 0xA31 JUMP JUMPDEST SWAP5 POP POP PUSH1 0x20 DUP6 ADD CALLDATALOAD PUSH8 0xFFFFFFFFFFFFFFFF DUP2 GT ISZERO PUSH2 0xB05 JUMPI PUSH1 0x0 DUP1 REVERT JUMPDEST PUSH2 0xB11 DUP8 DUP3 DUP9 ADD PUSH2 0xA31 JUMP JUMPDEST SWAP4 POP POP PUSH1 0x40 PUSH2 0xB22 DUP8 DUP3 DUP9 ADD PUSH2 0xA5B JUMP JUMPDEST SWAP3 POP POP PUSH1 0x60 PUSH2 0xB33 DUP8 DUP3 DUP9 ADD PUSH2 0xA5B JUMP JUMPDEST SWAP2 POP POP SWAP3 SWAP6 SWAP2 SWAP5 POP SWAP3 POP JUMP JUMPDEST PUSH1 0x0 PUSH1 0x20 DUP3 DUP5 SUB SLT ISZERO PUSH2 0xB51 JUMPI PUSH1 0x0 DUP1 REVERT JUMPDEST PUSH1 0x0 PUSH2 0xB5F DUP5 DUP3 DUP6 ADD PUSH2 0xA5B JUMP JUMPDEST SWAP2 POP POP SWAP3 SWAP2 POP POP JUMP JUMPDEST PUSH1 0x0 DUP1 PUSH1 0x0 PUSH1 0x60 DUP5 DUP7 SUB SLT ISZERO PUSH2 0xB7D JUMPI PUSH1 0x0 DUP1 REVERT JUMPDEST PUSH1 0x0 PUSH2 0xB8B DUP7 DUP3 DUP8 ADD PUSH2 0xA5B JUMP JUMPDEST SWAP4 POP POP PUSH1 0x20 DUP5 ADD CALLDATALOAD PUSH8 0xFFFFFFFFFFFFFFFF DUP2 GT ISZERO PUSH2 0xBA8 JUMPI PUSH1 0x0 DUP1 REVERT JUMPDEST PUSH2 0xBB4 DUP7 DUP3 DUP8 ADD PUSH2 0xA31 JUMP JUMPDEST SWAP3 POP POP PUSH1 0x40 PUSH2 0xBC5 DUP7 DUP3 DUP8 ADD PUSH2 0xA5B JUMP JUMPDEST SWAP2 POP POP SWAP3 POP SWAP3 POP SWAP3 JUMP JUMPDEST PUSH1 0x0 DUP1 PUSH1 0x40 DUP4 DUP6 SUB SLT ISZERO PUSH2 0xBE2 JUMPI PUSH1 0x0 DUP1 REVERT JUMPDEST PUSH1 0x0 PUSH2 0xBF0 DUP6 DUP3 DUP7 ADD PUSH2 0xA5B JUMP JUMPDEST SWAP3 POP POP PUSH1 0x20 PUSH2 0xC01 DUP6 DUP3 DUP7 ADD PUSH2 0xA5B JUMP JUMPDEST SWAP2 POP POP SWAP3 POP SWAP3 SWAP1 POP JUMP JUMPDEST PUSH1 0x0 PUSH2 0xC16 DUP3 PUSH2 0xEA2 JUMP JUMPDEST PUSH2 0xC20 DUP2 DUP6 PUSH2 0xEAD JUMP JUMPDEST SWAP4 POP PUSH2 0xC30 DUP2 DUP6 PUSH1 0x20 DUP7 ADD PUSH2 0xFED JUMP JUMPDEST PUSH2 0xC39 DUP2 PUSH2 0x10DF JUMP JUMPDEST DUP5 ADD SWAP2 POP POP SWAP3 SWAP2 POP POP JUMP JUMPDEST PUSH1 0x0 PUSH2 0xC51 PUSH1 0xD DUP4 PUSH2 0xEAD JUMP JUMPDEST SWAP2 POP PUSH32 0x4E6F7420417661696C61626C6500000000000000000000000000000000000000 PUSH1 0x0 DUP4 ADD MSTORE PUSH1 0x20 DUP3 ADD SWAP1 POP SWAP2 SWAP1 POP JUMP JUMPDEST PUSH1 0x0 PUSH2 0xC91 PUSH1 0x10 DUP4 PUSH2 0xEAD JUMP JUMPDEST SWAP2 POP PUSH32 0x4E6F7420656E6F7567682066756E647300000000000000000000000000000000 PUSH1 0x0 DUP4 ADD MSTORE PUSH1 0x20 DUP3 ADD SWAP1 POP SWAP2 SWAP1 POP JUMP JUMPDEST PUSH1 0x0 PUSH2 0xCD1 PUSH1 0xD DUP4 PUSH2 0xEAD JUMP JUMPDEST SWAP2 POP PUSH32 0x4E6F207065726D697373696F6E00000000000000000000000000000000000000 PUSH1 0x0 DUP4 ADD MSTORE PUSH1 0x20 DUP3 ADD SWAP1 POP SWAP2 SWAP1 POP JUMP JUMPDEST PUSH1 0x0 PUSH2 0xD11 PUSH1 0xC DUP4 PUSH2 0xEAD JUMP JUMPDEST SWAP2 POP PUSH32 0x4F7574206F66206F726465720000000000000000000000000000000000000000 PUSH1 0x0 DUP4 ADD MSTORE PUSH1 0x20 DUP3 ADD SWAP1 POP SWAP2 SWAP1 POP JUMP JUMPDEST PUSH2 0xD4D DUP2 PUSH2 0xFD4 JUMP JUMPDEST DUP3 MSTORE POP POP JUMP JUMPDEST PUSH1 0x0 PUSH1 0x80 DUP3 ADD SWAP1 POP DUP2 DUP2 SUB PUSH1 0x0 DUP4 ADD MSTORE PUSH2 0xD6D DUP2 DUP8 PUSH2 0xC0B JUMP JUMPDEST SWAP1 POP DUP2 DUP2 SUB PUSH1 0x20 DUP4 ADD MSTORE PUSH2 0xD81 DUP2 DUP7 PUSH2 0xC0B JUMP JUMPDEST SWAP1 POP PUSH2 0xD90 PUSH1 0x40 DUP4 ADD DUP6 PUSH2 0xD44 JUMP JUMPDEST PUSH2 0xD9D PUSH1 0x60 DUP4 ADD DUP5 PUSH2 0xD44 JUMP JUMPDEST SWAP6 SWAP5 POP POP POP POP POP JUMP JUMPDEST PUSH1 0x0 PUSH1 0x20 DUP3 ADD SWAP1 POP DUP2 DUP2 SUB PUSH1 0x0 DUP4 ADD MSTORE PUSH2 0xDBF DUP2 PUSH2 0xC44 JUMP JUMPDEST SWAP1 POP SWAP2 SWAP1 POP JUMP JUMPDEST PUSH1 0x0 PUSH1 0x20 DUP3 ADD SWAP1 POP DUP2 DUP2 SUB PUSH1 0x0 DUP4 ADD MSTORE PUSH2 0xDDF DUP2 PUSH2 0xC84 JUMP JUMPDEST SWAP1 POP SWAP2 SWAP1 POP JUMP JUMPDEST PUSH1 0x0 PUSH1 0x20 DUP3 ADD SWAP1 POP DUP2 DUP2 SUB PUSH1 0x0 DUP4 ADD MSTORE PUSH2 0xDFF DUP2 PUSH2 0xCC4 JUMP JUMPDEST SWAP1 POP SWAP2 SWAP1 POP JUMP JUMPDEST PUSH1 0x0 PUSH1 0x20 DUP3 ADD SWAP1 POP DUP2 DUP2 SUB PUSH1 0x0 DUP4 ADD MSTORE PUSH2 0xE1F DUP2 PUSH2 0xD04 JUMP JUMPDEST SWAP1 POP SWAP2 SWAP1 POP JUMP JUMPDEST PUSH1 0x0 PUSH1 0x20 DUP3 ADD SWAP1 POP PUSH2 0xE3B PUSH1 0x0 DUP4 ADD DUP5 PUSH2 0xD44 JUMP JUMPDEST SWAP3 SWAP2 POP POP JUMP JUMPDEST PUSH1 0x0 PUSH1 0x40 MLOAD SWAP1 POP DUP2 DUP2 ADD DUP2 DUP2 LT PUSH8 0xFFFFFFFFFFFFFFFF DUP3 GT OR ISZERO PUSH2 0xE68 JUMPI PUSH2 0xE67 PUSH2 0x10B0 JUMP JUMPDEST JUMPDEST DUP1 PUSH1 0x40 MSTORE POP SWAP2 SWAP1 POP JUMP JUMPDEST PUSH1 0x0 PUSH8 0xFFFFFFFFFFFFFFFF DUP3 GT ISZERO PUSH2 0xE8D JUMPI PUSH2 0xE8C PUSH2 0x10B0 JUMP JUMPDEST JUMPDEST PUSH1 0x1F NOT PUSH1 0x1F DUP4 ADD AND SWAP1 POP PUSH1 0x20 DUP2 ADD SWAP1 POP SWAP2 SWAP1 POP JUMP JUMPDEST PUSH1 0x0 DUP2 MLOAD SWAP1 POP SWAP2 SWAP1 POP JUMP JUMPDEST PUSH1 0x0 DUP3 DUP3 MSTORE PUSH1 0x20 DUP3 ADD SWAP1 POP SWAP3 SWAP2 POP POP JUMP JUMPDEST PUSH1 0x0 PUSH2 0xEC9 DUP3 PUSH2 0xFD4 JUMP JUMPDEST SWAP2 POP PUSH2 0xED4 DUP4 PUSH2 0xFD4 JUMP JUMPDEST SWAP3 POP DUP3 PUSH32 0xFFFFFFFFFFFFFFFFFFFFFFFFFFFFFFFFFFFFFFFFFFFFFFFFFFFFFFFFFFFFFFFF SUB DUP3 GT ISZERO PUSH2 0xF09 JUMPI PUSH2 0xF08 PUSH2 0x1052 JUMP JUMPDEST JUMPDEST DUP3 DUP3 ADD SWAP1 POP SWAP3 SWAP2 POP POP JUMP JUMPDEST PUSH1 0x0 PUSH2 0xF1F DUP3 PUSH2 0xFD4 JUMP JUMPDEST SWAP2 POP PUSH2 0xF2A DUP4 PUSH2 0xFD4 JUMP JUMPDEST SWAP3 POP DUP2 PUSH32 0xFFFFFFFFFFFFFFFFFFFFFFFFFFFFFFFFFFFFFFFFFFFFFFFFFFFFFFFFFFFFFFFF DIV DUP4 GT DUP3 ISZERO ISZERO AND ISZERO PUSH2 0xF63 JUMPI PUSH2 0xF62 PUSH2 0x1052 JUMP JUMPDEST JUMPDEST DUP3 DUP3 MUL SWAP1 POP SWAP3 SWAP2 POP POP JUMP JUMPDEST PUSH1 0x0 PUSH2 0xF79 DUP3 PUSH2 0xFD4 JUMP JUMPDEST SWAP2 POP PUSH2 0xF84 DUP4 PUSH2 0xFD4 JUMP JUMPDEST SWAP3 POP DUP3 DUP3 LT ISZERO PUSH2 0xF97 JUMPI PUSH2 0xF96 PUSH2 0x1052 JUMP JUMPDEST JUMPDEST DUP3 DUP3 SUB SWAP1 POP SWAP3 SWAP2 POP POP JUMP JUMPDEST PUSH1 0x0 PUSH2 0xFAD DUP3 PUSH2 0xFB4 JUMP JUMPDEST SWAP1 POP SWAP2 SWAP1 POP JUMP JUMPDEST PUSH1 0x0 PUSH20 0xFFFFFFFFFFFFFFFFFFFFFFFFFFFFFFFFFFFFFFFF DUP3 AND SWAP1 POP SWAP2 SWAP1 POP JUMP JUMPDEST PUSH1 0x0 DUP2 SWAP1 POP SWAP2 SWAP1 POP JUMP JUMPDEST DUP3 DUP2 DUP4 CALLDATACOPY PUSH1 0x0 DUP4 DUP4 ADD MSTORE POP POP POP JUMP JUMPDEST PUSH1 0x0 JUMPDEST DUP4 DUP2 LT ISZERO PUSH2 0x100B JUMPI DUP1 DUP3 ADD MLOAD DUP2 DUP5 ADD MSTORE PUSH1 0x20 DUP2 ADD SWAP1 POP PUSH2 0xFF0 JUMP JUMPDEST DUP4 DUP2 GT ISZERO PUSH2 0x101A JUMPI PUSH1 0x0 DUP5 DUP5 ADD MSTORE JUMPDEST POP POP POP POP JUMP JUMPDEST PUSH1 0x0 PUSH1 0x2 DUP3 DIV SWAP1 POP PUSH1 0x1 DUP3 AND DUP1 PUSH2 0x1038 JUMPI PUSH1 0x7F DUP3 AND SWAP2 POP JUMPDEST PUSH1 0x20 DUP3 LT DUP2 EQ ISZERO PUSH2 0x104C JUMPI PUSH2 0x104B PUSH2 0x1081 JUMP JUMPDEST JUMPDEST POP SWAP2 SWAP1 POP JUMP JUMPDEST PUSH32 0x4E487B7100000000000000000000000000000000000000000000000000000000 PUSH1 0x0 MSTORE PUSH1 0x11 PUSH1 0x4 MSTORE PUSH1 0x24 PUSH1 0x0 REVERT JUMPDEST PUSH32 0x4E487B7100000000000000000000000000000000000000000000000000000000 PUSH1 0x0 MSTORE PUSH1 0x22 PUSH1 0x4 MSTORE PUSH1 0x24 PUSH1 0x0 REVERT JUMPDEST PUSH32 0x4E487B7100000000000000000000000000000000000000000000000000000000 PUSH1 0x0 MSTORE PUSH1 0x41 PUSH1 0x4 MSTORE PUSH1 0x24 PUSH1 0x0 REVERT JUMPDEST PUSH1 0x0 PUSH1 0x1F NOT PUSH1 0x1F DUP4 ADD AND SWAP1 POP SWAP2 SWAP1 POP JUMP JUMPDEST PUSH2 0x10F9 DUP2 PUSH2 0xFA2 JUMP JUMPDEST DUP2 EQ PUSH2 0x1104 JUMPI PUSH1 0x0 DUP1 REVERT JUMPDEST POP JUMP JUMPDEST PUSH2 0x1110 DUP2 PUSH2 0xFD4 JUMP JUMPDEST DUP2 EQ PUSH2 0x111B JUMPI PUSH1 0x0 DUP1 REVERT JUMPDEST POP JUMP INVALID LOG2 PUSH5 0x6970667358 0x22 SLT KECCAK256 0xF6 SHL MLOAD AND 0xC9 ISZERO PUSH32 0xAB2FB648C48D154FF55706AA735F7954EC276A50EEBB64BEAF64736F6C634300 ADDMOD STOP STOP CALLER "},"methodIdentifiers":{"addProduct(string,string,uint256,uint256)":"01cecd14","purchaseProduct(uint256,uint256)":"a0440426","purchases(address,uint256)":"52d3f849","updateProduct(uint256,string,uint256)":"53488deb","viewProduct(uint256)":"eafd4bbd"}}}}}