{
  "_format": "hh-sol-artifact-1",
  "contractName": "Ecommerce",
  "sourceName": "contracts/Ecommerce.sol",
  "abi": [
    {
      "inputs": [],
      "stateMutability": "nonpayable",
      "type": "constructor"
    },
    {
      "inputs": [
        {
          "internalType": "string",
          "name": "_name",
          "type": "string"
        },
        {
          "internalType": "string",
          "name": "_description",
          "type": "string"
        },
        {
          "internalType": "uint256",
          "name": "_price",
          "type": "uint256"
        },
        {
          "internalType": "uint256",
          "name": "_stock",
          "type": "uint256"
        }
      ],
      "name": "addProduct",
      "outputs": [],
      "stateMutability": "nonpayable",
      "type": "function"
    },
    {
      "inputs": [
        {
          "internalType": "uint256",
          "name": "_id",
          "type": "uint256"
        },
        {
          "internalType": "uint256",
          "name": "_quantity",
          "type": "uint256"
        }
      ],
      "name": "purchaseProduct",
      "outputs": [],
      "stateMutability": "payable",
      "type": "function"
    },
    {
      "inputs": [
        {
          "internalType": "address",
          "name": "",
          "type": "address"
        },
        {
          "internalType": "uint256",
          "name": "",
          "type": "uint256"
        }
      ],
      "name": "purchases",
      "outputs": [
        {
          "internalType": "uint256",
          "name": "",
          "type": "uint256"
        }
      ],
      "stateMutability": "view",
      "type": "function"
    },
    {
      "inputs": [
        {
          "internalType": "uint256",
          "name": "_id",
          "type": "uint256"
        },
        {
          "internalType": "string",
          "name": "_name",
          "type": "string"
        },
        {
          "internalType": "uint256",
          "name": "_price",
          "type": "uint256"
        }
      ],
      "name": "updateProduct",
      "outputs": [],
      "stateMutability": "nonpayable",
      "type": "function"
    },
    {
      "inputs": [
        {
          "internalType": "uint256",
          "name": "_id",
          "type": "uint256"
        }
      ],
      "name": "viewProduct",
      "outputs": [
        {
          "internalType": "string",
          "name": "name",
          "type": "string"
        },
        {
          "internalType": "string",
          "name": "description",
          "type": "string"
        },
        {
          "internalType": "uint256",
          "name": "price",
          "type": "uint256"
        },
        {
          "internalType": "uint256",
          "name": "stock",
          "type": "uint256"
        }
      ],
      "stateMutability": "view",
      "type": "function"
    }
  ],
  "bytecode": "0x608060405234801561001057600080fd5b50336000806101000a81548173ffffffffffffffffffffffffffffffffffffffff021916908373ffffffffffffffffffffffffffffffffffffffff160217905550611154806100606000396000f3fe60806040526004361061004a5760003560e01c806301cecd141461004f57806352d3f8491461007857806353488deb146100b5578063a0440426146100de578063eafd4bbd146100fa575b600080fd5b34801561005b57600080fd5b5061007660048036038101906100719190610aac565b61013a565b005b34801561008457600080fd5b5061009f600480360381019061009a9190610a70565b610299565b6040516100ac9190610e26565b60405180910390f35b3480156100c157600080fd5b506100dc60048036038101906100d79190610b68565b6102be565b005b6100f860048036038101906100f39190610bcf565b6104a0565b005b34801561010657600080fd5b50610121600480360381019061011c9190610b3f565b610767565b6040516101319493929190610d53565b60405180910390f35b60008054906101000a900473ffffffffffffffffffffffffffffffffffffffff1673ffffffffffffffffffffffffffffffffffffffff163373ffffffffffffffffffffffffffffffffffffffff16146101c8576040517f08c379a00000000000000000000000000000000000000000000000000000000081526004016101bf90610de6565b60405180910390fd5b60006040518060a001604052808681526020018581526020018481526020018381526020016001151581525090506001819080600181540180825580915050600190039060005260206000209060050201600090919091909150600082015181600001908051906020019061023e92919061093b565b50602082015181600101908051906020019061025b92919061093b565b50604082015181600201556060820151816003015560808201518160040160006101000a81548160ff02191690831515021790555050505050505050565b6002602052816000526040600020602052806000526040600020600091509150505481565b60008054906101000a900473ffffffffffffffffffffffffffffffffffffffff1673ffffffffffffffffffffffffffffffffffffffff163373ffffffffffffffffffffffffffffffffffffffff161461034c576040517f08c379a000000000000000000000000000000000000000000000000000000000815260040161034390610de6565b60405180910390fd5b600115156001848154811061038a577f4e487b7100000000000000000000000000000000000000000000000000000000600052603260045260246000fd5b906000526020600020906005020160040160009054906101000a900460ff161515146103eb576040517f08c379a00000000000000000000000000000000000000000000000000000000081526004016103e290610da6565b60405180910390fd5b8160018481548110610426577f4e487b7100000000000000000000000000000000000000000000000000000000600052603260045260246000fd5b9060005260206000209060050201600001908051906020019061044a92919061093b565b508060018481548110610486577f4e487b7100000000000000000000000000000000000000000000000000000000600052603260045260246000fd5b906000526020600020906005020160020181905550505050565b6000600183815481106104dc577f4e487b7100000000000000000000000000000000000000000000000000000000600052603260045260246000fd5b90600052602060002090600502016040518060a001604052908160008201805461050590611020565b80601f016020809104026020016040519081016040528092919081815260200182805461053190611020565b801561057e5780601f106105535761010080835404028352916020019161057e565b820191906000526020600020905b81548152906001019060200180831161056157829003601f168201915b5050505050815260200160018201805461059790611020565b80601f01602080910402602001604051908101604052809291908181526020018280546105c390611020565b80156106105780601f106105e557610100808354040283529160200191610610565b820191906000526020600020905b8154815290600101906020018083116105f357829003601f168201915b5050505050815260200160028201548152602001600382015481526020016004820160009054906101000a900460ff161515151581525050905081816040015161065a9190610f14565b341461069b576040517f08c379a000000000000000000000000000000000000000000000000000000000815260040161069290610dc6565b60405180910390fd5b81816060015110156106e2576040517f08c379a00000000000000000000000000000000000000000000000000000000081526004016106d990610e06565b60405180910390fd5b81600260003373ffffffffffffffffffffffffffffffffffffffff1673ffffffffffffffffffffffffffffffffffffffff168152602001908152602001600020600085815260200190815260200160002060008282546107429190610ebe565b92505081905550818160600181815161075b9190610f6e565b91508181525050505050565b6060806000806000600186815481106107a9577f4e487b7100000000000000000000000000000000000000000000000000000000600052603260045260246000fd5b90600052602060002090600502016040518060a00160405290816000820180546107d290611020565b80601f01602080910402602001604051908101604052809291908181526020018280546107fe90611020565b801561084b5780601f106108205761010080835404028352916020019161084b565b820191906000526020600020905b81548152906001019060200180831161082e57829003601f168201915b5050505050815260200160018201805461086490611020565b80601f016020809104026020016040519081016040528092919081815260200182805461089090611020565b80156108dd5780601f106108b2576101008083540402835291602001916108dd565b820191906000526020600020905b8154815290600101906020018083116108c057829003601f168201915b5050505050815260200160028201548152602001600382015481526020016004820160009054906101000a900460ff161515151581525050905080600001518160200151826040015183606001519450945094509450509193509193565b82805461094790611020565b90600052602060002090601f01602090048101928261096957600085556109b0565b82601f1061098257805160ff19168380011785556109b0565b828001600101855582156109b0579182015b828111156109af578251825591602001919060010190610994565b5b5090506109bd91906109c1565b5090565b5b808211156109da5760008160009055506001016109c2565b5090565b60006109f16109ec84610e72565b610e41565b905082815260208101848484011115610a0957600080fd5b610a14848285610fde565b509392505050565b600081359050610a2b816110f0565b92915050565b600082601f830112610a4257600080fd5b8135610a528482602086016109de565b91505092915050565b600081359050610a6a81611107565b92915050565b60008060408385031215610a8357600080fd5b6000610a9185828601610a1c565b9250506020610aa285828601610a5b565b9150509250929050565b60008060008060808587031215610ac257600080fd5b600085013567ffffffffffffffff811115610adc57600080fd5b610ae887828801610a31565b945050602085013567ffffffffffffffff811115610b0557600080fd5b610b1187828801610a31565b9350506040610b2287828801610a5b565b9250506060610b3387828801610a5b565b91505092959194509250565b600060208284031215610b5157600080fd5b6000610b5f84828501610a5b565b91505092915050565b600080600060608486031215610b7d57600080fd5b6000610b8b86828701610a5b565b935050602084013567ffffffffffffffff811115610ba857600080fd5b610bb486828701610a31565b9250506040610bc586828701610a5b565b9150509250925092565b60008060408385031215610be257600080fd5b6000610bf085828601610a5b565b9250506020610c0185828601610a5b565b9150509250929050565b6000610c1682610ea2565b610c208185610ead565b9350610c30818560208601610fed565b610c39816110df565b840191505092915050565b6000610c51600d83610ead565b91507f4e6f7420417661696c61626c65000000000000000000000000000000000000006000830152602082019050919050565b6000610c91601083610ead565b91507f4e6f7420656e6f7567682066756e6473000000000000000000000000000000006000830152602082019050919050565b6000610cd1600d83610ead565b91507f4e6f207065726d697373696f6e000000000000000000000000000000000000006000830152602082019050919050565b6000610d11600c83610ead565b91507f4f7574206f66206f7264657200000000000000000000000000000000000000006000830152602082019050919050565b610d4d81610fd4565b82525050565b60006080820190508181036000830152610d6d8187610c0b565b90508181036020830152610d818186610c0b565b9050610d906040830185610d44565b610d9d6060830184610d44565b95945050505050565b60006020820190508181036000830152610dbf81610c44565b9050919050565b60006020820190508181036000830152610ddf81610c84565b9050919050565b60006020820190508181036000830152610dff81610cc4565b9050919050565b60006020820190508181036000830152610e1f81610d04565b9050919050565b6000602082019050610e3b6000830184610d44565b92915050565b6000604051905081810181811067ffffffffffffffff82111715610e6857610e676110b0565b5b8060405250919050565b600067ffffffffffffffff821115610e8d57610e8c6110b0565b5b601f19601f8301169050602081019050919050565b600081519050919050565b600082825260208201905092915050565b6000610ec982610fd4565b9150610ed483610fd4565b9250827fffffffffffffffffffffffffffffffffffffffffffffffffffffffffffffffff03821115610f0957610f08611052565b5b828201905092915050565b6000610f1f82610fd4565b9150610f2a83610fd4565b9250817fffffffffffffffffffffffffffffffffffffffffffffffffffffffffffffffff0483118215151615610f6357610f62611052565b5b828202905092915050565b6000610f7982610fd4565b9150610f8483610fd4565b925082821015610f9757610f96611052565b5b828203905092915050565b6000610fad82610fb4565b9050919050565b600073ffffffffffffffffffffffffffffffffffffffff82169050919050565b6000819050919050565b82818337600083830152505050565b60005b8381101561100b578082015181840152602081019050610ff0565b8381111561101a576000848401525b50505050565b6000600282049050600182168061103857607f821691505b6020821081141561104c5761104b611081565b5b50919050565b7f4e487b7100000000000000000000000000000000000000000000000000000000600052601160045260246000fd5b7f4e487b7100000000000000000000000000000000000000000000000000000000600052602260045260246000fd5b7f4e487b7100000000000000000000000000000000000000000000000000000000600052604160045260246000fd5b6000601f19601f8301169050919050565b6110f981610fa2565b811461110457600080fd5b50565b61111081610fd4565b811461111b57600080fd5b5056fea2646970667358221220f61b5116c9157fab2fb648c48d154ff55706aa735f7954ec276a50eebb64beaf64736f6c63430008000033",
  "linkReferences": {},
  "deployedLinkReferences": {}
}